:020000040800F2
:100000009868002081030008035500082F48000865
:1000100001550008710D00089168000800000000FB
:10002000000000000000000000000000C102000805
:1000300005120008000000001D0300081D5A0008FA
:100040009B0300089B0300089B0300089B03000818
:100050009B0300089B0300089B0300089B03000808
:100060009B0300089B0300089B030008510F000836
:100070005D0F0008690F0008750F0008810F000868
:100080008D0F000800000000090700089B0300080E
:100090009B0300089B0300089B030008071200084D
:1000A000BD5A0008C95A00089B0300089B030008BA
:1000B0009B0300089B0300089B0300089B030008A8
:1000C0009B0300089B0300089B0300089B03000898
:1000D000795600086D68000879680008856800088E
:1000E0009B0300089B0300089B0300089B03000878
:1000F0009B0300089B0300089B030008000000000E
:10010000000000009B030008000000009B030008A3
:100110009B03000800000000D55A0008E15A0008BF
:10012000990F00089B0300089B0300089B0300082D
:100130009B03000800000000000000009B03000873
:100140009B0300089B030008000000000000000063
:10015000000000000000000000000000000000009F
:100160000000000000000000000000009B030008E9
:100170009B030008000000000000000000000000D9
:10018000000000009B0300080000000000000000C9
:10019000000000000000000000000000000000005F
:1001A00000000000000000009B0300089B03000803
:1001B0009B0300089B0300089B030008000000004D
:1001C000000000009B030008000000000000000089
:1001D0009B0300089B03000800F002F800F060F8A1
:1001E0000AA090E8000C82448344AAF10107DA4592
:1001F00001D100F055F8AFF2090EBAE80F0013F084
:10020000010F18BFFB1A43F001031847289600009E
:100210004896000010F8013B0A4413F0030408BF9D
:1002200010F8014B1D1108BF10F8015B641E05D0CA
:1002300010F8016B641E01F8016BF9D1002D15D087
:1002400010F8014B03F00C030C2BA1EB04040ABFC4
:1002500010F8013BA4EB8314A4EB032405F1010384
:1002600014F8016B5B1E01F8016BF9D5914238BFA0
:1002700010F8013BD1D3704700230024002500264D
:10028000103A28BF78C1FBD8520728BF30C148BFF9
:100290000B6070471FB509F0DCF91FBD10B510BD2C
:1002A00000F09EF91146FFF7F5FF07F08BFB00F019
:1002B000BCF903B4FFF7F2FF03BC00F0BFF9000084
:1002C0002C4B19680868B0E8F04F80F30988BFF339
:1002D0006F8F4FF0000080F311887047000000001E
:1002E00008480068006880F308884FF0000080F339
:1002F000148862B661B6BFF34F8FBFF36F8F00DF14
:1003000000BF00BF08ED00E0DFF80C00016841F419
:1003100070010160704700BF88ED00E0EFF30980D5
:10032000BFF36F8F134B1A681EF0100F08BF20ED3C
:10033000108A20E9F04F106009B44FF0500080F3AC
:100340001188BFF34F8FBFF36F8F08F005FA4FF09E
:10035000000080F3118809BC19680868B0E8F04F04
:100360001EF0100F08BFB0EC108A80F30988BFF3AD
:100370006F8F704758150020EFF30580704700001D
:100380000948804709480047FEE7FEE7FEE7FEE729
:10039000FEE7FEE7FEE7FEE7FEE7FEE70448054965
:1003A000054A064B70470000AD5A0008D901000805
:1003B00098620020986800209864002098640020CB
:1003C00053EA020C00F069802DE9F04B4FF0000673
:1003D000002B1FBFB3FA83F503FA05F424FA05F6E0
:1003E0005E4012BF1643B2FA82F502FA05F4C5F177
:1003F00020051EBF22FA05FC44EA0C04203556EA0B
:10040000044C4FEA144418BF641C4FF000084FF02E
:100410000009904271EB030C39D3002919BFB1FADE
:1004200081F701FA07F6B0FA80F700FA07F6C7F18C
:1004300020071EBF20FA07FC46EA0C062037B6FB51
:10044000F4FCA7EB0507103F07F01F0BCBF12006CC
:100450000CFA0BFB2CFA06F644BFB3460026202FFD
:10046000A4BF5E464FF0000B5BEA060C08BF4FF0DE
:10047000010B19EB0B09ABFB027C48EB0608C01B18
:1004800006FB02CC0BFB03CC71EB0C01C1E70B4666
:10049000024641464846BDE8F08B13B54FF00000D8
:1004A0004FF00001AFF30080BDE81C40704710B56D
:1004B000203AC0F00B80B1E81850203AA0E818505C
:1004C000B1E81850A0E81850BFF4F5AF5FEA027C1D
:1004D00024BFB1E81850A0E8185044BF18C918C08C
:1004E000BDE810405FEA827C24BF51F8043B40F82D
:1004F000043B08BF7047D20728BF31F8023B48BF12
:1005000011F8012B28BF20F8023B48BF00F8012B4F
:10051000704702F0FF0343EA032242EA024200F07E
:1005200037B84FF0000200B513469446964620397E
:1005300022BFA0E80C50A0E80C50B1F12001BFF49C
:10054000F7AF090728BFA0E80C5048BF0CC05DF802
:1005500004EB890028BF40F8042B08BF704748BF50
:1005600020F8022B11F0804F18BF00F8012B7047C4
:1005700070477047704710B500F02AF8006810BD4A
:1005800010B5044600F024F8046010BD4FF00002DE
:100590000429C0F0128010F0030C3FF4C4AFCCF17A
:1005A000040CBCF1020F18BF00F8012BA8BF20F803
:1005B000022BA1EB0C01FFF7B6BF5FEAC17C24BFA1
:1005C00000F8012B00F8012B48BF00F8012B704701
:1005D00000487047346200200048704734620020B1
:1005E0007546FFF7F9FFAE4605006946534620F011
:1005F0000700854618B020B5FFF7D0FEBDE82040C3
:100600004FF000064FF000074FF000084FF0000BCE
:1006100021F00701AC46ACE8C009ACE8C009ACE881
:10062000C009ACE8C0098D46704710B50446AFF369
:1006300000802046BDE81040FFF73BBE014918206E
:10064000ABBEFEE726000200704701804280436097
:10065000704700002DE9F04FB0F800A04A8892459D
:1006600045D142880B889A4241D1D1F804C04668EE
:100670004FEA920802F003094FEA0A1E4FEA8A0184
:100680004FF0000B624600BFB8F1000F1AD01546BC
:10069000474600BF336828462B6073680D444350BB
:1006A000B3686C186B50F56806F110036618655056
:1006B000013F06EB01051E46ECD100EB0E071E467E
:1006C00002E000BF0CEB8B07B9F1000F06D04846E3
:1006D00056F8043B01383B600F44F9D10BF1010B94
:1006E000BAF1010A02F10402CED1002000E0FD209F
:1006F00040B2BDE8F08FB5EEC00AF1EE10FA01D2BB
:10070000B1EE400A70470000014801F02DB9000029
:10071000C015002010B5846AE16D11F0500F06D0AD
:10072000E16DC90630D5204601F01CF910BDE06D21
:1007300040F40070E06520680168090712D504F0F4
:100740001DFBE8B12068C068800419D4E06D20F476
:100750008070E065E06DC00412D4E06D40F00100EF
:10076000E0650DE0C06880070AD4E06D20F4807079
:10077000E065E06DC00403D4E06D40F00100E06589
:10078000204601F0EDF810BD616D496BBDE81040E9
:10079000084710B5806AC16D41F04001C165016E26
:1007A00041F00401016601F0DDF810BD10B5806A6A
:1007B00001F0D7F810BD000070B5044620688168CC
:1007C000C1F3400504F0D2FA78B375BB20688168A4
:1007D00001F00D01012909D0E06D40F01000E06545
:1007E000206E40F001002066012070BD8168124A31
:1007F0001140891C816021680320086001F06AFEB5
:10080000054613E001F066FE401B02280ED9206861
:100810008068C0070AD0E06D40F01000E065206EEF
:1008200040F001002066012070BD03E02068806870
:10083000C007E7D10020F7E7C0FFFF7FF8B5044607
:1008400000200090206804F091FA78BB206881684D
:10085000284A114209D0E06D40F01000E065206E9A
:1008600040F0010020660120F8BD8168214E7F3EE6
:100870003140491C81602048806800F0E07000022F
:1008800010D51E481E490068B0FBF1F0401C00EB7B
:1008900040008000009002E00098401E0090009808
:1008A0000028F9D101F016FE05461CE020E004F016
:1008B0005DFA20B9206881683140491C816001F0EF
:1008C00009FE401B02280ED920680068C043C007FB
:1008D00009D0E06D40F01000E065206E40F00100AE
:1008E00020660120F8BD20680168C943C907DED130
:1008F0000020F8BD3F0000800003005020000020D1
:10090000400D030010B50D48C08B9FED0D1A00EE91
:10091000100A0D4CF8EE400A80EE810ADFED090A5C
:1009200020EE200A84ED000A9FED081ADFED080A88
:10093000084804F0DDF984ED000A10BDA41F002072
:1009400000F07F459A995941581100200000FA4360
:100950000AD7233C1821002010B57F21074800F05A
:1009600091FD10220649054801F0A0FA06489FEDC6
:10097000050A80ED010A80ED000A10BDC0150020B7
:10098000A41F0020000000001821002010B500F076
:1009900009F800F024F800F037F8BDE8104000F046
:1009A0002BB8000001221103014801F08CBD0000AA
:1009B0000004004800224FF48051014801F083BD3B
:1009C00000040048002805D0012805D0022805D1E0
:1009D00000F01AB8FFF7E6BF00F001B87047012237
:1009E00011024FF0904001F06EBD00224FF4807173
:1009F0004FF0904001F067BD0122D102014801F0A3
:100A000062BD0000000400480122D1024FF0904076
:100A100001F059BD00224FF400614FF0904001F009
:100A200052BD002805D0012805D0022805D1FFF7C6
:100A3000F1BFFFF7BFBFFFF7D8BF704710B5002267
:100A40001121104600F070F90C220F21002000F057
:100A50006BF91F221021002000F066F900221121FD
:100A6000012000F061F901220F21104600F05CF92D
:100A700002221021BDE81040012000F055B900000D
:100A8000F0B504462DED048B85B00D462046FFF7EA
:100A9000C8FF0022039204920192029245F0800165
:100AA0008DF80C1041F288310091072301AA03A9A7
:100AB0008F4802F0D5FC2046FFF784FF9FED8D9A0A
:100AC0008D4EB4B3012C7DD0022C2ED19DF80600A2
:100AD0009DF80510400140EAD100404200EE100AA6
:100AE000B8EEC00A86ED0C0A9DF808009DF80710C4
:100AF000400140EAD100404200EE100AB8EEC00AC0
:100B000086ED0D0A9DF80A009DF80910C00140EA23
:100B10005100404208F054FA9FED781B53EC112B22
:100B200008F066FA07F0D2FFB06305B0BDEC048BA5
:100B3000F0BDFFE79DF805009DF8061040EA012092
:100B400000B24042C11700EB1170001100EE100A14
:100B5000B8EEC00ADFED6B0A20EE200A86ED060A29
:100B60009DF807009DF8081040EA012000B24042BD
:100B7000C11700EB1170001101EE100AB8EEC11A96
:100B800021EE201A86ED071A9DF809009DF80A103B
:100B900040EA012000B24042C11700EB1170001181
:100BA00001EE100AB8EEC11A61EE200AC6ED080A7D
:100BB000B0EE491AF7EE000A534804F099F886EDB2
:100BC000060A00E018E0504896ED070AB0EE491A10
:100BD000F7EE000A0C3004F08BF886ED070A4A485D
:100BE00096ED080AB0EE491AF7EE000A183004F044
:100BF0007FF886ED080A98E79DF805009DF8061035
:100C000040EA012000B208F0DBF99FED408B53EC85
:100C1000182B08F041F807F059FF09EE900AC6EDCD
:100C2000009A9DF807009DF8081040EA012000B2E4
:100C300008F0C6F953EC182B08F02EF807F046FF21
:100C400070609DF809009DF80A1040EA012000B28A
:100C500008F0B6F953EC182B08F01EF807F036FF31
:100C6000B0602948B0EE491AF7EE000AB0EE690A02
:100C7000243004F03DF886ED000A234896ED010A81
:100C8000B0EE491AF7EE000A303004F031F886ED84
:100C9000010A1D4896ED020AB0EE491AF7EE000A65
:100CA0003C3004F025F886ED020A0024DFED199AA5
:100CB0009FED198B1A4F06EB840595ED009A89EE8E
:100CC000290A10EE100A08F053FC53EC182B08F018
:100CD0008FF907F0FBFEA86407EB840080ED1B9AF8
:100CE000641C032CE7DB0F490878401C08701CE7E4
:100CF0008C16002000409C45441D00200000000090
:100D00000000D43F0000003C242100206666666697
:100D100066663040000034436E861BF0F9210940BE
:100D2000C81E002046110020FEB507460C46154699
:100D30003846FFF776FE0026009602E0009B5B1C1B
:100D40000093009B0A2BF9DB8DF808408DF80950C1
:100D5000019641F288300090022301AA02A90348BB
:100D600002F07EFB3846FFF72DFEFEBD8C160020FC
:100D7000FEE7000010B501F0ADFB0D4C206260787D
:100D8000A07080214FF0904001F096FB401C6070F5
:100D900000F00CFAA169206A401AE06100F088FABC
:100DA000A079072803D1BDE8104004F077BD10BD3D
:100DB000001D002007B5054901200870A1F10800B9
:100DC0009DE80E0014300EC00EBD0000CC000020C7
:100DD0002DE9FC41044601212078384F4FF00008EE
:100DE0004FF47A76002805D001281FD1397087F892
:100DF000018025E07878002818D13970A08810B1DA
:100E000000F05EF801E000F07FF894ED020A4FF484
:100E10007A71BCEEC00A10EE100A4843B0FBF6F03F
:100E200007F0E0FB00F070F887F80080BDE8FC8177
:100E3000797881B10A2007F0D5FB2078022803D009
:100E4000216978688142F3D8C7F8048000F05CF823
:100E500087F80080EAE7E16801EBC00003C8CDE94C
:100E60000001A08A9DED010A00F05AF80546BDF880
:100E7000000010B100F024F801E000F045F8052D65
:100E800011D94B2007F0AEFB503D4FF47A7045432B
:100E9000B5FBF6F007F0A6FB002000F011F80520E6
:100EA00007F0A0FB06E04FF47A704543B5FBF6F07F
:100EB00007F098FB7868401C7860BEE7C40000200B
:100EC00030B50F4B41F2893100241A68884201D3B2
:100ED000D46330BDAA2148430A49B1FBF0F0401E5B
:100EE0000521B0FBF1F101B90121AA2595621A682B
:100EF000D062D8601868C1631868446230BD0000D1
:100F0000F016002080FE210A0349022008700349E0
:100F100000200968C8637047CC000020F01600204C
:100F200000EE900ADFED081AB8EE601AC1EE810AF1
:100F30009FED061A60EE810A20EE200ABCEEC00A80
:100F400010EE100A704700000000704200007A4462
:100F5000014801F09AB800002C160020014801F069
:100F600094B80000741A0020014801F08EB8000007
:100F7000D41A0020014801F088B80000341B00207A
:100F8000014801F082B80000941B0020014801F0E4
:100F90007CB80000F41B0020014801F076B8000086
:100FA000541C002010B502680E4CD1B2142308392D
:100FB000A24203D20C4AB1FBF3F104E00A4A203208
:100FC000B1FBF3F1891D436C23F003031A448264DF
:100FD000054A8032C26401F01F020121914001657F
:100FE00010BD00000804024000080240017901F031
:100FF0007F01074A491E02EB81024265044A4032E2
:10100000826501F01F0201219140C1657047000017
:101010000009024030B5D0E913546C60446D002CD7
:1010200002D0D0E916546C6090F8444004F01F05DB
:101030000124AC40056C6C60046863608368102B0D
:1010400004D0036899600068C26030BD03689A608C
:101050000068C16030BD0000012804D0022805D11D
:10106000034800F053B8024800F00CB87047000085
:101070003A11002002464021014801F024BA000044
:101080000004004816490A78AA2A1CD10A46837827
:10109000D278012B02D0022B15D113E042710A79CC
:1010A00082714A79C2F3C002C2714A79C2F38002E6
:1010B00002724A79C2F340024272497901F0010199
:1010C000817200E0027107494A78002A07D1427A0A
:1010D000002A04D1807A002801D10120487070478D
:1010E000281D00205011002010B50120FFF7C2FF7D
:1010F000BDE81040AFF300800349022008700122D0
:101100008A70FFF7A9BF00003A11002070B50446AD
:101110001B4801F00AFA1B49002048600872194D6B
:10112000A178AA222D1D012915D0022926D12A70C5
:10113000A07868700120A870E078E8700421284643
:1011400006F037FBE07228712946BDE870400522A1
:101150000B4803F0FDBA2A70A1786970A87009489D
:101160000321001D06F025FBE072E870BDE8704029
:1011700004490422091D024803F0EABA70BD0000C8
:10118000B8180020241100200246034902200870EC
:10119000CA708870FFF760BF3A11002000B500F0F8
:1011A00037F85DF804EB04F0FFBB000010B5144CF9
:1011B00000222046218940781E2906D8A37898422B
:1011C00002D1491C218100E0228121891E290DD1F3
:1011D0002281E1782171E070012801D1022906D035
:1011E000022803D1012901D10420607110BD032020
:1011F000607107F08BFBA06107F088FB206210BDD7
:10120000001D00207047802001F06EB872B6FEE726
:1012100000210B4A02EB810090ED150A80ED180ABF
:1012200090ED120A80ED150A90ED0C0A80ED0F0A80
:1012300090ED090A80ED0C0A491C0329EADB70478E
:10124000C81E00202DE9F043F0EE402A0024174F7D
:10125000154E07F5737806EB840504EBC40000EB2C
:10126000400007EB8000D5ED120A95ED090A814692
:10127000B0EE621A06F0F8FB08EB840080ED000A7D
:10128000D5ED1B1AF0EE400A09F5A270B0EE621A15
:10129000B0EE610A06F0E8FB85ED240A641C032C1D
:1012A000D9DBBDE8F0830000C81E00206C210020BF
:1012B00070B5304C0A26012260790025032802D03F
:1012C000042848D12AE0E069A0F13201B1F5E17FBC
:1012D00002D80520A0713EE0A0F5FA71FA2902D2E9
:1012E0000620A07137E040F2EE23984233D3A18963
:1012F000E181B0FBF3F080B2A081814201D084F89B
:10130000242094F82400012803D184F8245004F008
:1013100061F9A0890A281ED3A6811CE0A0790528BE
:1013200002D0062817D114E0207C00B92274207C5A
:10133000012810D1206A60616089401C608184F8B6
:10134000245004F047F960890A2800D3668165714A
:1013500001E003F033FD6169206A401AB0F5167FA1
:1013600006D3207C012803D1BDE8704004F02EBBD9
:1013700070BD0000001D002010B504462DED028B4D
:10138000B0EE608A10EE100A08F0F2F8C4E9060127
:1013900018EE100A08F0ECF8C4E90801BDEC028B65
:1013A00010BD000010B5074C6088411C61803228D8
:1013B00004D9042005F02CFB05206070002020706B
:1013C00010BD0000481100200348C07A002801D158
:1013D00005F01EBB70470000321D00207047000062
:1013E00070B52348234CC57A012D2FD1B0F90210D6
:1013F000D4ED090A00EE101AB8EEC00A30EE200A49
:1014000084ED120AB0F90600D4ED0B0A00EE100AC2
:10141000B8EEC00A30EE200A84ED140A00F109018A
:10142000132908D294ED0A0AF6EE000A20EE200AEB
:1014300084ED130A0AE007F0C3FD9FED0F1B53EC88
:10144000112B07F0D5FD07F041FBE064002D0ED114
:10145000002005F0DDFA94ED090A84ED120A9FEDF3
:10146000080A84ED130A94ED0B0A84ED140A70BD8A
:10147000321D0020C81E00209A9999999999E93F38
:1014800000000000F8B504460E460025009594F8CB
:101490005800012810D0012084F858002046FFF79A
:1014A0008BF90346180009D0E06D40F01000E065AC
:1014B00084F858501846F8BD0220F8BDE06D20F4BD
:1014C000885040F00200E06520688168124A1140AF
:1014D00006F08042114341F0004181600F492068CD
:1014E0000FE0009A521C0092009A8A4209D3E06DE4
:1014F00020F0020040F01000E06584F85850012010
:10150000F8BD8268D20F002AEBD1E06D20F0020016
:1015100040F00100E065CBE7C0FFFF3F02DE0400C2
:101520007047704770477047704700002DE9F84FCB
:1015300004460D46002600270097DFF8F49394F840
:101540005800012811D04FF0010884F85880206815
:1015500003F010FC58B1E06D40F02000E06501267A
:1015600084F858703046BDE8F88F0220FBE7A98860
:1015700020682A6801F4407300EB9310036B01F0BC
:101580001F014FF01F0C0CFA01FCC2F3846223EA26
:101590000C038A4013430363206803F0EBFB82468D
:1015A000206803F0DFFB5AEA000A3CD1AA68B2F1D6
:1015B000004F39D02968206803F0E8FB20684169B2
:1015C00021F00041416120686A69C168C1F3C1012D
:1015D00049008A402969042934D02B6800EB810036
:1015E000016EDFF850C303F0F84301EA0C01134326
:1015F000194341F00041016620682A69A96900EB9E
:101600008200026E22F080720A430266297F2068FF
:101610002A69012913D0002100EB8200026E22F01A
:1016200000720A4302667CE029680022206803F009
:10163000ADFB2068416941F000414161C3E74FF0D3
:101640000071E9E7002103F087FB40036ED0002121
:10165000206803F081FB90FAA0F0B0FA80F12868CE
:1016600042036AD090FAA0F0B0FA80F0814204D12F
:1016700000221146206803F098FB0121206803F046
:101680006BFB40035CD00121206803F065FB90FAFE
:10169000A0F0B0FA80F12868420358D090FAA0F088
:1016A000B0FA80F0814204D100220121206803F0C9
:1016B0007CFB0221206803F04FFB40034AD002214B
:1016C000206803F049FB90FAA0F0B0FA80F1286896
:1016D000420346D090FAA0F0B0FA80F0814204D1E3
:1016E00000220221206803F060FB0321206803F040
:1016F00033FB400338D00321206803F02DFB90FA20
:10170000A0F0B0FA80F12868420334D090FAA0F03B
:10171000B0FA80F0814204D100220321206803F056
:1017200044FB206803F022FB40B3B0E000212068B6
:1017300003F012FBC0F3846191E7C0F3846095E786
:101740000121206803F008FBC0F38461A3E7C0F324
:101750008460A7E70221206803F0FEFAC0F38461E9
:10176000B5E7C0F38460B9E70321206803F0F4FA19
:10177000C0F38461C7E7C0F38460CBE720682A7BAD
:10178000296850F8B03FC1F3120C23EA0C0302F0B1
:10179000180C694A22FA0CF20A4013430360E86805
:1017A000484574D12868410319D090FAA0F1B1FAE4
:1017B00081F1491C01F01F01092931D84103002999
:1017C00010D090FAA0F1B1FA81F101F1010101F01C
:1017D0001F0108FA01F808D1C0F3846109E0C0F3E1
:1017E0008461E6E7C0F38461EFE790FAA0F1B1FA13
:1017F00081F101F1010101F01F0148EA816102D18B
:10180000C0F3846003E090FAA0F0B0FA80F000F139
:10181000010000F01F0000EB400041EA005132E0FF
:101820004FEA403100290DD090FAA0F1B1FA81F1D0
:1018300001F1010101F01F0108FA01F805D1C0F31F
:10184000846106E0C0F38461F2E790FAA0F1B1FA96
:1018500081F101F1010101F01F0148EA816102D12A
:10186000C0F3846003E090FAA0F0B0FA80F000F1D9
:10187000010000F01F00A0F10A0000EB400041EA67
:10188000005040F00071AA68206803F07FFA2B48EE
:10189000296801423FF464AE294A906800F0E07084
:1018A000284B994202D0284B99421FD103021DD4E4
:1018B0002168B1F1A04F7FF453AE40F4000091686D
:1018C00021F0E07101439160204821490068B0FB9C
:1018D000F1F0401C00EB40008000009002E0009816
:1018E000401E009000980028F9D139E6194D1A4B96
:1018F000A9420CD1C5010AD421689942F5D040F023
:101900008070916821F0E0710143916028E6134DE9
:10191000A942EAD14102E8D421689942E5D040F4D5
:101920008000916821F0E0710143916018E60000A9
:1019300000007F4000F0FF03FFFF07000000088069
:1019400000030050000021C31000C09020000020C0
:10195000400D0300000052C700010050000084CB7E
:1019600070477047704700002DE9F05F04464FF064
:1019700000082068056846689A48806800F01F07DC
:10198000A8070ED5B0070CD5E06DC00603D4E06DF6
:1019900040F40060E0652046FFF7C2FD21680220A8
:1019A0000860DFF844B268074FF0A04901D570071E
:1019B00003D4280737D5300735D5E06DC00603D4EA
:1019C000E06D40F40070E065206803F0D7F920B3C3
:1019D0002068584501D1494600E00146814208D0BF
:1019E0003FB1052F05D0092F03D0584503D14946F3
:1019F00002E0C16801E00146C96889040DD40168AC
:101A000009070AD503F0B6F958B3E06D40F01000AD
:101A1000E065206E40F0010020662046FFF7A0FF41
:101A200021680C200860A80601D5B00603D468061A
:101A300056D5700654D5E06DC00603D4E06D40F471
:101A40000050E0652068C16C11F4C07F1AD04FF0DF
:101A5000000A03F093F902462068584515D149461B
:101A600014E02068416821F00C014160E06D20F431
:101A70008070E065E06DC004CFD4E06D40F00100FF
:101A8000E065CAE74FF0010AE3E70146814265D00D
:101A9000F7B3062F62D0072F60D0584500D081469B
:101AA000D9F80C10BAF1000F14D08B0102D58AB10D
:101AB0008A040FD4026852060CD589020AD403F0B6
:101AC00051F930B3E06D40F01000E065206E40F059
:101AD000010020662046FFF724FD21686020086091
:101AE00028060BD5300609D5E06D40F48030E0655E
:101AF000204600F07BF9216880200860E8050FD5BA
:101B0000F0050DD5E06D40F40030E065204601E0C1
:101B100024E025E0FFF707FD21684FF4807008609E
:101B2000A8050CD5B0050AD5E06D40F48020E0652D
:101B30002046FFF7F9FC21684FF400700860E806C2
:101B400039D5F00637D5E06BD8B1EFB125488068BC
:101B500000F46040F0B14FF001081BE0C168A1E75C
:101B60002068416821F060014160E06D20F4805000
:101B7000E065E06DC005ADD4E06D40F00100E065CA
:101B8000A8E74FF0010805E02068C068C00701D051
:101B90004FF00108B8F1010F0AD1E06D40F4806008
:101BA000E065206E40F0020020662046FFF7DAFE76
:101BB000216810200860680512D5700510D5E06D09
:101BC00040F48040E065206E40F008002066216807
:101BD0004FF4806008602046BDE8F05FFFF7A2BCCC
:101BE000BDE8F09F0003005000010050F8B5044626
:101BF000002500260096002C02D0E06D10B107E011
:101C00000120F8BD204600F0F3F8266684F85860FD
:101C100020688168C1F3407119B181686C4A114034
:101C2000816020688168C1F30071A1B98168694A47
:101C3000114041F080518160674868490068B0FBFD
:101C4000F1F0401C4000009002E00098401E00901F
:101C500000980028F9D120688168C1F3007141B96A
:101C6000E16D41F01001E165216E41F00101216655
:101C7000012503F07FF8E16DC90600D430B1E06DB5
:101C800040F01000E06501252846F8BDE06D20F425
:101C9000807040F00200E065206803F067F888B9C2
:101CA0004FF0A0408068C0F300004D498968C1F33F
:101CB0000001084306D160684A498A6822F47C1210
:101CC00002438A60E168E06B627F0843A16841EAF1
:101CD0004231084394F8241040EA0140012903D11D
:101CE000218D491E40EA4140E16A29B101F4787131
:101CF000226B014342EA01002168CA683A4B1A404C
:101D00000243CA6020680169626B21F0406111439F
:101D10000161206803F026F880BB207F94F838101A
:101D2000800340EA41012068C26844F202039A43FA
:101D30000A43C260206968B12068016941F48031BA
:101D40000161206850F8C01F22696FF30D01114333
:101D500001600AE02068016921F480310161206896
:101D600050F8C01F6FF30D01016094F84000012886
:101D700013D02068016921F0010101616069012827
:101D80001CD02068016B21F00F010163E06D20F091
:101D9000020040F00100E06576E7D4E9111001434C
:101DA000D4E91302104301432068026940F2FC7336
:101DB0009A43114341F001010161DFE72068016BA3
:101DC000226A21F00F01521E11430163DEE7000079
:101DD000C0FFFF5FC0FFFF7F20000020400D030019
:101DE00000010050000300500740F0FF7047000062
:101DF000F0B597B00546142112A8FEF792FB4421D6
:101E000001A8FEF78EFB25492868884244D1C0010D
:101E100001908003109001A800F012FD08B1FFF7B7
:101E2000F5F91F49C86C40F40050C864C86C00F450
:101E300000500090C86C40F00100C864C86C00F00D
:101E4000010000902027129703201390002614967B
:101E500012A94FF0904000F053FA134C1148206043
:101E600024206060A660E660802020614000606100
:101E70008000A061E7612662204600F06DF908B19C
:101E8000FFF7C4F96C65A56200220521122000F05D
:101E900037FC122000F026FC17B0F0BD0001005006
:101EA00000100240080002402C1600202DE9F041ED
:101EB00004460E4617463548806800F01F05206826
:101EC00002F058FF10B10220BDE8F08194F85800EC
:101ED00001280CD0012084F858004FF0000845B1CB
:101EE000052D06D0092D04D084F85880ECE7022097
:101EF000EAE72046FEF7A2FC10B184F85880E3E739
:101F0000E06D40F60161884340F48070E06520494F
:101F10002068884202D14FF0A04200E0024682428F
:101F200000D01DB9E06D20F48010E065E06DC004C4
:101F300004D5206E20F00600206601E0C4F8608021
:101F4000616D1448C862616D13480863616D134880
:101F5000486321681C20086084F858802068416824
:101F600041F0100141602068C16841F00101C16089
:101F700021683B4640313246606D00F04FF92168E0
:101F80008A68074B1A40121D8A609DE700030050C3
:101F90000001005015070008AD070008930700086E
:101FA000C0FFFF7F10B50021002808D090F8252041
:101FB0000123022A05D00421C163012124E001206C
:101FC00010BD0268146824F00104146002681468EB
:101FD00024F00E041460826C146824F4807414607D
:101FE00090F84420046C02F01F0203FA02F26260CF
:101FF000D0E913426260426D32B1146824F48074F7
:102000001460D0E9164262602430437000220270EE
:10201000084610BD70B5002490F825100023012259
:10202000022906D00421243081614270037001240A
:1020300029E001680D6825F001050D6001680D6853
:1020400025F00E050D60816C0D6825F480750D601E
:1020500090F84410154601F01F018A40016C4A6057
:10206000D0E913215160416D31B10A6822F48072C8
:102070000A60D0E91621516080F8255080F824309C
:10208000816B01B18847204670BDF0B4016C0A68CD
:1020900001680B6890F84440042604F01F0406FA17
:1020A00004F5154215D05D0713D50A68920603D4CE
:1020B0000A6822F004020A6090F8441001F01F013F
:1020C00006FA01F5016C4D60016B002941D0F0BCAE
:1020D00008474FF0020C0CFA04F616424FF00007C6
:1020E0004FF0010519D09E0717D50A68920605D44E
:1020F0000A6822F00A020A6080F8255090F844101D
:1021000001F01F010CFA01F6016C4E6080F824709A
:10211000C16A00291DD0F0BC08470826A640164217
:1021200017D01A0715D50A6822F00E020A6090F837
:102130004410026C01F01F0105FA01F15160C56302
:1021400080F8255080F82470416B002901D0F0BC44
:102150000847F0BC7047000070B50446002C0DD055
:102160002B4A2068142190420AD22A4A0244B2FB28
:10217000F1F189006164284921640BE0012070BD00
:10218000234A52420244B2FBF1F1890061642049C2
:1021900008392164022184F82510026847F6F0719D
:1021A0008A43D4E902131943D4E904352B43194374
:1021B000A3691943E3691943236A19431143016071
:1021C0002046FEF7EFFEA0680025B0F5804F00D155
:1021D00065602079A16C00F07F000860D4E91310DD
:1021E00048606068401E032808D82046FEF7FEFEBF
:1021F000606D0560D4E91610486002E06565A5656C
:10220000E5652434A561012060702570002070BD53
:1022100008040240F8FFFDBF0000024070B504460C
:10222000002594F8240001280CD0012084F8240013
:1022300094F825600020012E06D084F824000225A1
:10224000284670BD022070BD022684F82560E06338
:102250002068066826F0010606602046FEF7DAFED2
:10226000206B28B12068016841F00E01016009E08F
:102270002068016821F0040101602068016841F0D4
:102280000A010160A06C0168C90303D5016841F42B
:1022900080710160606D18B1016841F48071016066
:1022A0002068016841F001010160C9E710B580288C
:1022B00012D10A4C207860B9094801F0FBFA00F00D
:1022C00009F9A0610220A07020716070E070012007
:1022D000207004498020086010BD0000001D00200F
:1022E0006C1800201404014010B504490A68024229
:1022F00002D00860FFF7DAFF10BD000014040140AF
:102300002DE9F84F0022DFF890914FF001080327E4
:102310004FF00F0C09F1040AA9F1040BB4E008FA1C
:1023200002F52B40002B6ED00C7904F00304012C35
:1023300001D0022C15D18668540007FA04FE26EA63
:102340000E06D1F80CE00EFA04FE4EEA060EC0F8B6
:1023500008E04468AC430D79C5F30015954025436A
:1023600045600C79E443A40702D18C68012C08D0A5
:10237000C568540007FA04F6B5438E68A6402E439C
:10238000C6600C7904F00304022C11D1D40800EBD0
:102390008406356A5407E40E0CFA04FE25EA0E059D
:1023A000D1F810E00EFA04FE4EEA050EC6F820E061
:1023B0000568540007FA04F6B5430E7906F00306E3
:1023C000A6402E4306604C6814F4403F5BD0334C6B
:1023D000256E45F001052566246E04F00104009485
:1023E0002F4C22F003052E19B56894074FEA147E8E
:1023F0000CFA0EF4A543B0F1904F05D0294CA04241
:1024000004D1012417E03EE0002414E0264CA04251
:1024100001D102240FE0254CA04201D103240AE09F
:10242000234CA04201D1042405E0224CA04201D15A
:10243000052400E0062404FA0EF42C43B460D9F815
:1024400000409C434D68ED0200D51C43C9F8004094
:10245000DAF800409C434D68AD0200D51C43CAF831
:102460000040DBF800409C434D68AD0300D51C43A1
:10247000CBF80040084D083D2C689C434E68F6039D
:1024800000D51C432C60521C0B6833FA02F47FF415
:1024900046AFBDE8F88F000008040140001002407C
:1024A000000001400004004800080048000C0048FB
:1024B00000100048001400480069084201D00120C3
:1024C000704700207047002A01D081617047816207
:1024D0007047000001488068704700001400002029
:1024E00090F8841001291ED0012180F88410242145
:1024F000C0F88810016851E8002F22F00C0241E872
:102500000023002BF6D1016851E8002F42F00402AD
:1025100041E80023002BF6D12021843041600021C6
:102520000170002070470220704790F88410012944
:102530001ED0012180F884102421C0F88810016881
:1025400051E8002F22F00C0241E80023002BF6D1C5
:10255000016851E8002F42F0080241E80023002BF7
:10256000F6D12021843041600021017000207047A5
:102570000220704710B50446002C03D0D4F8880020
:1025800010B107E0012010BD002084F8840020462F
:1025900001F042FF2420C4F888002068016821F07F
:1025A00001010160A06A10B1204603F08FFD2046B2
:1025B00003F054FF012818D02068416821F49041AD
:1025C00041602068816821F0220181602068816873
:1025D00041F0080181602068016841F0010101605B
:1025E0002046BDE8104003F0D5BD012010BD00001D
:1025F00002488168426811448160704714000020DD
:1026000010B50024032000F09BF80F2000F008F81C
:1026100008B1012401E000F047F8204610BD000099
:1026200030B587B005461B48016E41F40061016674
:10263000006E00F40060009001A902A800F030FBD9
:1026400000F064FB1449B0FBF1F1491E1448134A31
:10265000026040F2E732C2604160002101618160A6
:1026600001F08FF8044694B90D4801F023F90446AF
:102670006CB9192000F036F8102D07D20022294637
:10268000192000F03DF80748056000E0012407B07C
:10269000204630BD0010024040420F00002C014097
:1026A000B41C00201400002008B50D48016E41F054
:1026B00001010166016E01F001010091816D41F09F
:1026C00080518165806D00F08050009000220F21C4
:1026D000901E00F015F8BDE8084000F0A9B8000011
:1026E00000100240002809DB00F01F020121914088
:1026F0004009800000F1E020C0F8001170470000A0
:10270000F0B40D460D4B1B68C3F30223C3F107045D
:10271000042C00D90424191D072901D2002300E04C
:10272000DB1E012606FA04F1491E294099409E400D
:10273000761E16403143F0BC04F0EEBA0CED00E01A
:1027400000F00701054A10684FF6FF03184040EA01
:102750000120034908431060704700000CED00E0C1
:102760000000FA052F49304B0A6832214A432F49AD
:1027700000280AD0B0F5007F2DD0086820F4C06092
:1027800040F480600860002070470868C0F3412072
:10279000022805D051F8800F20F480700860F2E71D
:1027A000D1F8800020F48070C1F88000086820F41F
:1027B000C06040F400700860B2FBF3F0401C00E021
:1027C000401E4A69520501D50028F9D148694005E3
:1027D000D9D5032070470868C0F34120022805D0EE
:1027E00051F8800F40F480700860CCE7D1F8800089
:1027F00040F48070C1F88000086820F4C06040F4A4
:1028000000700860B2FBF3F0401C00E0401E4A6913
:10281000520501D50028F9D148694005B3D50320F8
:10282000704700002000002040420F000070004070
:102830000248816841F48041816070470070004027
:102840002DE9F84F0446002600272068A04D00031C
:1028500066D54FF00008A86DC00009D4A86D40F0FF
:102860008050A865A86D00F0805000904FF00108DE
:10287000DFF860A2DAF8000040F48070CAF80000C7
:10288000FFF728FE814607E0FFF724FEA0EB0900D2
:10289000022801D9032603E0DAF80000C005F3D5C9
:1028A00026B13746B8F1010F36D039E0D5F890009F
:1028B00000F4407080B1216C81420DD055F8900F2A
:1028C00020F44070296841F480312960296821F49E
:1028D0008031296045F89009C00711D0FFF7FAFD53
:1028E000814641F2883A07E0FFF7F4FDA0EB0900CA
:1028F000504501D9032603E0D5F890008007F3D5B1
:102900000EB13746CEE7D5F89000216C20F4407028
:102910000843C5F89000C5E7A86D20F08050A86571
:102920002078C00707D0D5F88800616820F0030040
:102930000843C5F888002078800707D5D5F88800B7
:10294000A16820F00C000843C5F8880020784007F3
:1029500007D5D5F88800E16820F030000843C5F8B5
:1029600088002078000707D5D5F88800216920F075
:10297000C0000843C5F888002078800607D5D5F840
:102980008800616920F440600843C5F88800207819
:10299000400607D5D5F88800A16920F440500843C7
:1029A000C5F888002078000607D5D5F88800E169C9
:1029B00020F440400843C5F888002088C00507D5AA
:1029C000D5F88800216A20F440300843C5F8880013
:1029D0002088800507D5D5F88800616A20F440205A
:1029E0000843C5F88800208840050FD5D5F8880031
:1029F000A16A20F440100843C5F88800A06AB0F529
:102A0000801F03D1E86840F48010E860208800054A
:102A10000FD5D5F88800E16A20F440000843C5F8D6
:102A20008800E06AB0F5800F03D1E86840F48010B8
:102A3000E8602088C0040FD5D5F88800216B20F00D
:102A400040700843C5F88800206BB0F1807F03D147
:102A5000E86840F48010E86020884FF0006180044E
:102A60000ED5D5F88800626B20F040601043C5F8A1
:102A70008800606B884203D1E86840F48010E86009
:102A8000208840040ED5D5F88800A26B20F0406065
:102A90001043C5F88800A06B884203D1E86840F471
:102AA0008010E860208800040FD5D5F88800E16B1D
:102AB00020F040500843C5F88800E06BB0F1805F1B
:102AC00003D1E86840F48030E8603846BDE8F88F0C
:102AD00000100240007000402DE9F04704460D460A
:102AE0000027002C17D0DFF8A091D9F8000000F0E3
:102AF0000F00A84211D2D9F8000020F00F0028439F
:102B0000C9F80000D9F8000000F00F00A84204D076
:102B10000120BDE8F0870120FBE720785B4EC0076D
:102B200041F2883A4ED06068DFF86481032806D00D
:102B300002281ED03068400520D40120E9E7306823
:102B4000800101D40120E4E702F06EFD404520D968
:102B5000B06810F0F00F04D02078800719D5A06875
:102B6000B8B9B06820F0F00040F08000B060802775
:102B70000FE03068800301D40120CAE700F0D8F8E4
:102B8000404506D9B06820F0F00040F08000B06009
:102B90008027B068616820F003000843B060FFF749
:102BA00099FC804607E0FFF795FCA0EB0800504534
:102BB00001D90320ADE7B068616800F00C00B0EB0C
:102BC000810FF0D12068810715D5400703D5B06883
:102BD00040F4E060B0602078000705D5B06820F4CC
:102BE000605040F4E060B060B068A16820F0F00090
:102BF0000843B06005E0802F03D1B06820F0F000FA
:102C0000B060D9F8000000F00F00A84217D9D9F839
:102C1000000020F00F002843C9F80000FFF75AFC1D
:102C2000074606E0FFF756FCC01B504501D90320BC
:102C30006FE7D9F8000000F00F00A842F2D1207829
:102C4000400705D5B068E16820F4E0600843B06053
:102C50002078000706D5B068216920F4605040EA6A
:102C6000C100B06000F064F8B1680A4AC1F3031112
:102C7000515C01F01F01C84007490860074800681F
:102C8000BDE8F047FFF7CCBC002002400010024036
:102C900000B4C404E09600082000002014000020C6
:102CA0000F2202600B4A936803F0030343609368AA
:102CB00003F0F0038360936803F4E063C3609268F9
:102CC00002F46052D20802610348006800F00F006D
:102CD0000860704700100240002002400148006870
:102CE000704700002000002000B5FFF7F7FF0549FE
:102CF0008968054AC1F30221515C01F01F01C840F7
:102D000000BD000000100240F096000800B5FFF77B
:102D1000E5FF05498968054AC1F3C221515C01F00C
:102D20001F01C84000BD000000100240F0960008DE
:102D300010B51A4A9068C0F38101194801290BD0D7
:102D40009168184CC1F38101022906D09168C1F342
:102D50008101032903D0002010BD204610BDD16899
:102D600001F00303D168C1F30311491C032B0DD0FB
:102D7000B0FBF1F0D168C1F306214843D168C1F33B
:102D80004161491C4900B0FBF1F010BDB4FBF1F00A
:102D9000D168C1F306214843F0E70000001002406B
:102DA0000024F400001BB7002DE9F8430446002C72
:102DB0000CD02078FE4DC00752D0A86800F00C005F
:102DC000E96801F003010C2803D004E00120BDE80C
:102DD000F883032916D0082814D06068B0F5803F26
:102DE00017D0B0F5A02F19D0286820F480302860C3
:102DF000286820F480202860606818B3FFF76AFB19
:102E000006461BE0286880032AD5606840BB012085
:102E1000DDE7286840F480302860EDE7286840F45A
:102E200080202860286840F480302860E4E7FFF7BD
:102E300051FB801B642801D90320C8E72868800360
:102E4000F5D50DE0FFF746FB064606E0FFF742FB2F
:102E5000801B642801D90320B9E728688003F5D4D2
:102E6000207880074ED5A86800F00C00E96801F0D2
:102E700003010C2801D102290BD0042809D0E068F5
:102E800070B3286840F480702860FFF723FB064683
:102E90001BE02868400501D5E06868B16868217CBE
:102EA00020F0FE4040EA01606860C2480068FFF719
:102EB000B7FB38B301208AE7012088E7FFF70AFB58
:102EC000801B022801D9032081E728684005F5D539
:102ED0006868217C20F0FE4040EA0160686011E0F3
:102EE000286820F480702860FFF7F4FA064606E0B0
:102EF000FFF7F0FA801B022801D9032067E7286852
:102F00004005F5D4207800072CD56069A8B1D5F824
:102F1000940040F00100C5F89400FFF7DBFA064684
:102F200006E0FFF7D7FA801B022801D903204EE7FD
:102F3000D5F894008007F4D514E0D5F8940020F07B
:102F40000100C5F89400FFF7C5FA064606E0FFF752
:102F5000C1FA801B022801D9032038E7D5F8940074
:102F60008007F4D4207840076FD54FF00008A86D93
:102F7000C00009D4A86D40F08050A865A86D00F08D
:102F8000805000904FF001088B4E3068C00511D47E
:102F9000306840F480703060FFF79CFA074606E026
:102FA000FFF798FAC01B022801D903200FE7306809
:102FB000C005F5D5A068012813D0052818D055F80C
:102FC000900F20F001002860286820F0040045F8E8
:102FD0009009A06841F2883608B3FFF77BFA0746EC
:102FE00018E0D5F8900040F00100C5F89000F0E737
:102FF00055F8900F40F004002860286840F0010068
:1030000045F89009E5E7FFF765FAC01BB04201D922
:103010000320DCE6D5F890008007F4D50EE0FFF73A
:1030200059FA074606E0FFF755FAC01BB04201D92E
:103030000320CCE6D5F890008007F4D4B8F1010F56
:1030400003D1A86D20F08050A865207880062CD58B
:10305000A069A8B1D5F8980040F00100C5F8980023
:10306000FFF738FA064606E0FFF734FA801B02281D
:1030700001D90320ABE6D5F898008007F4D514E019
:10308000D5F8980020F00100C5F89800FFF722FA63
:10309000064606E0FFF71EFA801B022801D903202E
:1030A00095E6D5F898008007F4D4E069F0B3A968F4
:1030B0004FF0FF37C1F3810103295ED0022807D00A
:1030C000286820F080702860FFF704FA04464CE07E
:1030D000286820F080702860FFF7FCF9064606E0BB
:1030E000FFF7F8F9801B022801D903206FE6286852
:1030F0008001F5D454F8201F6068228A401E41EAFE
:103100000010A16807EB5202090241EA425108434C
:10311000217D07EB510140EA4160217B40EAC1601B
:10312000E968264A11400843E86000E062E0286848
:1031300040F080702860E86840F08070E860FFF739
:10314000C9F9044606E0FFF7C5F9001B022801D9BA
:1031500003203CE628688001F5D54BE0FFF7BAF97B
:10316000001B022801D9032031E628688001F5D42C
:10317000E86813490840E8603CE0012838D0E86876
:10318000226A00F00301914230D1616A00F0F0023E
:10319000491EB2EB011F29D1A26A00F4FE41B1EB36
:1031A000022F23D100F0784194F82C200AE000008F
:1031B0000010024014000020007000400C809F01AD
:1031C000FCFFEEFEB1EBC26F10D1228E00F4C00105
:1031D00007EB5202B1EB425F08D194F8341000F0D3
:1031E000C06007EB5101B0EB416F03D00120EEE569
:1031F0000120ECE50020EAE57047000038B5044600
:10320000206842688168C9434B060AD5CB0708D1BC
:10321000D3435B0605D4E16C01B02046BDE83040E5
:1032200008478B0708D4D3431B0605D4216D01B092
:103230002046BDE8304008478B0603D54B0601D534
:10324000CB0551D4D3439B064ED44B060AD494F8F5
:103250005D30032B49D0236E43F004032366C3681B
:10326000836800938B0609D4236E43F00103236621
:1032700083680093036823F040030360C80506D405
:10328000206E40F008002066206880680090206E64
:10329000002829D02068416821F0E0014160012028
:1032A00084F85D00900701D4D00722D020684168DF
:1032B00021F003014160114DA06D40B18563A06D07
:1032C000FEF7A8FE18B1206E40F040002066606D49
:1032D000002809D08563606DFEF79CFE002803D0AE
:1032E000206E40F04000206638BDC16880680090C4
:1032F00038BD2046FFF780FF38BD00008556000826
:1033000070B50446002C09D0606A002540B12561E3
:103310006561A56294F85D0040B10CE0012070BDCC
:103320006068B0F5827FF4D0E561F2E784F85C5024
:10333000204600F05BF8022084F85D0020680168F8
:1033400021F040010160E1684FF4E062914201D94F
:10335000002001E04FF48050B1F5706F02D091422F
:1033600000D0A562A188228901F4827102F404428E
:103370001143227C02F002021143227D02F001027D
:103380001143228B02F400721143227F02F03802B3
:10339000114394F8202002F080021143228D02F4A0
:1033A0000052114322681160A169042202EA11410E
:1033B00094F8242000F4805002F01002114394F895
:1033C000342002F008021143A28902F47062114312
:1033D0000143206841602068C16921F40061C16136
:1033E0002566012084F85D00002070BD10B586B010
:1033F0000446142101A8FDF794F816492068884274
:1034000026D11548816D41F480418165816D01F4BB
:1034100080410091C16C41F00201C164C06C00F0B8
:10342000020000904FF460400190022002900020C2
:10343000039004900520059001A90848FEF760FF5D
:10344000002205212420FFF75BF92420FFF74AF929
:1034500006B010BD003800400010024000040048D3
:103460002DE9FF5F04460E9E93461F460125FFF798
:1034700031F8804694F85D00616801280AD0B1F502
:10348000827F03D1A16809B9042803D0022004B0C7
:10349000BDE8F09F019890B3BBF1000F30D0380029
:1034A0002ED094F85C0001282CD04FF0010A84F84B
:1034B0005CA094F85D00042802D0052084F85D002B
:1034C0004FF00009C4F86090C4F840B0A4F846700A
:1034D000A4F844700198A063E787A787C4F84C90CC
:1034E000C4F85090E0684FF4E061884201D8012FA1
:1034F0000AD92068426822F48052426009E0FFE75E
:103500000120C4E70220C2E72068426842F48052EA
:10351000426020680268520603D4026842F040020A
:103520000260E068884249D9606808B1012F3DD146
:10353000A06B21680088C860A06B801CA063E08F2E
:10354000401EE08732E02068816889070DD5E18F51
:1035500059B1012D09D1A16B0988C160A06B801CF4
:10356000A063E08F401EE087002520688168C907BE
:103570000ED0B4F8461059B1C068216C0880206C98
:10358000801C2064B4F84600401EA4F846000125C3
:10359000FEF7A0FFA0EB0800B04207D3701C05D0D7
:1035A00084F85DA084F85C90032070E7E08F002829
:1035B000C9D1B4F846000028C5D176E0606808B1EA
:1035C000012F6BD1E08F01280AD9A06B21680088F8
:1035D000C860A06B801CA063E08F801EE0875DE068
:1035E000A06B216800780873A06B401CA063E08F7B
:1035F000401EE08752E02068816889071AD5E18F74
:10360000C1B1012D16D1E18F012909D9A16B09881A
:10361000C160A06B801CA063E08F801EE08708E083
:10362000A16B09780173A06B401CA063E08F401E62
:10363000E087002520688168C90726D0B4F84610C5
:1036400019B3B4F84610012913D9C06854F8401FC3
:1036500008802068801C2060E088801EE080E08870
:10366000403C012810D82068416841F480514160F5
:103670000AE0007B216C0870206C401C2064B4F8C8
:103680004600401EA4F846000125FEF723FFA0EBEC
:103690000800B04201D3701C13D196B1E08F00280E
:1036A000A9D1B4F846000028A5D1424631462046AB
:1036B00001F0F1FF58B12020206684F85C900120D1
:1036C000E5E684F85DA084F85C900320DFE684F8EA
:1036D0005DA084F85C90206E08B10120D7E6002040
:1036E000D5E67047704770477047704770470000D5
:1036F000F0B590F83C20012A34D0012680F83C60D7
:10370000022280F83D2003685A689C68164FDFF853
:103710005CC0BB4201D0634503D122F470054A6806
:103720002A43134D2A400D6815435D600268BA4272
:103730000DD0B2F1804F0AD00E4B9A4207D00E4BFB
:103740009A4204D0624502D00C4B9A4204D124F034
:1037500080038968194391603C30467000210170F4
:103760000020F0BD0220F0BD002C014000340140DB
:103770008FFFFFFD000400400008004000400140B2
:10378000704710B50446002C03D094F83D0010B1EA
:1037900007E0012010BD002084F83C00204600F026
:1037A00017F8022084F83D00211D206802F09EF9E0
:1037B00001203D34E0726070A070E0702071607193
:1037C000A071E07120726072A0722070002010BDA4
:1037D00008B500683149B0F1804F0BD0304A9042B3
:1037E00011D1886D40F002008865886D00F00200FC
:1037F000009008BD886D40F001008865886D00F07C
:103800000100009008BD274A904208D1886D40F021
:1038100004008865886D00F00400009008BD224A0D
:10382000904211D1886D40F010008865886D00F0DD
:1038300010000090002205213620FEF761FFBDE850
:1038400008403620FEF74EBF184A904211D1886DCD
:1038500040F020008865886D00F020000090002274
:1038600005213720FEF74CFFBDE808403720FEF762
:1038700039BF0F4A9042D1D1086E40F480300866BB
:10388000086E00F480300090002205211820FEF719
:1038900037FFBDE808401820FEF724BF00100240A3
:1038A00000040040000800400010004000140040E8
:1038B0000040014090F83D10012901D001207047DF
:1038C000022180F83D100168CA6842F00102CA6016
:1038D0000068124988420ED0B0F1804F0BD01049D9
:1038E000884208D00F49884205D00F49884202D04B
:1038F0000E4988420CD181680D4A114006290BD02F
:10390000B1F5803F08D0016841F00101016003E09A
:10391000016841F00101016000207047002C014066
:103920000004004000080040003401400040014015
:10393000070001000168CA6822F00102CA6001683C
:103940000A6A084B1A4207D10A6A9B111A4203D12C
:103950000A6822F001020A60012180F83D1000206F
:10396000704700001111110070B50446002594F84D
:103970003C00012814D0012684F83C60022084F821
:103980003D0020688268394B1A4022F47F428260F1
:10399000086870282DD010DC10F00F0F03D021E044
:1039A0004FF0020070BD4FEA2012072A1AD2DFE85A
:1039B00002F0565656564C3842002D4BC21A9842C9
:1039C0004DD009DCB0F5805F0DD0B0F5005F1CD0A4
:1039D000B0F1101F06D142E0102A40D0202A3ED07C
:1039E000502A3CD001253C346670002020702846C7
:1039F00070BDCB68D1E90121206802F0E0F82068B1
:103A0000816841F077018160EDE7CB68D1E9012160
:103A1000206802F0D4F82068816841F48041816018
:103A2000E1E7CA684968206802F084FA50212068FA
:103A300002F0D0F8D7E7CA684968206802F0A8FA0F
:103A40006021206802F0C6F8CDE7CA68496820689E
:103A500002F070FA4021206802F0BCF8C3E7226847
:103A60000146104602F0B6F8BDE7000088FFCEFF21
:103A70002000100070472DE9F04104462068C66818
:103A800005694FF00007A90714D5B10712D5F91E33
:103A900001610120207720688069800703D02046DB
:103AA000FFF7E8FF05E0204600F012F9204600F09D
:103AB000D3F92777680717D5700715D521686FF0F8
:103AC00004000861022020772068806910F4407F9C
:103AD00003D02046FFF7CEFF05E0204600F0F8F8BF
:103AE000204600F0B9F92777280716D5300714D5F6
:103AF00021686FF008000861042020772068C06901
:103B0000800703D02046FFF7B5FF05E0204600F010
:103B1000DFF8204600F0A0F92777E80617D5F00671
:103B200015D521686FF01000086108202077206803
:103B3000C06910F4407F03D02046FFF79BFF05E0EB
:103B4000204600F0C5F8204600F086F92777E80700
:103B500008D0F00706D021686FF001000861204608
:103B600000F004FA280601D4A80408D5300606D5CA
:103B700021686FF4025008612046FFF7B3FDE805A5
:103B800008D5300606D521686FF48070086120469C
:103B9000FFF7A7FD680608D5700606D521686FF007
:103BA00040000861204600F0FBF9A80608D5B006E1
:103BB00006D521686FF0200008612046FFF793FDCD
:103BC000E80208D5F00206D521686FF4801008617C
:103BD0002046FFF78AFDA80208D5B00206D5216865
:103BE0006FF4001008612046FFF77EFD680208D5DB
:103BF000700206D521686FF4800008612046FFF747
:103C000075FD28020AD5300208D521686FF400003E
:103C100008612046BDE8F041FFF7B2BDBDE8F08184
:103C200030B587B00446142102A8FCF77AFC21685D
:103C30000023234A02242348B1F1804F15D0224D9E
:103C4000A94226D1D16C41F00201D164D16C01F0BE
:103C5000020101913021029103940493059306948B
:103C600002A9FEF74DFB07B030BDD16C41F0020157
:103C7000D164D16C01F0020101914FF48161029194
:103C80000394049305930121069102A9FEF738FBE2
:103C9000E9E70E4DA942E6D1D16C41F00201D164B1
:103CA000D16C01F0020101914FF460710291039413
:103CB00004930593069402A9FEF722FBD3E70000C4
:103CC00000100240000400480004004000080040CA
:103CD000704770B504460D46002694F83C00012854
:103CE0000BD0012084F83C000C2A4FD007DC82B1B5
:103CF000042A22D0082A06D134E0022070BD102AFE
:103D000059D0142A6BD00126002084F83C0030469C
:103D100070BD2946206801F067FF2068816941F085
:103D2000080181612068816921F0040181612068B6
:103D300081692A6911438161E6E72946206801F01B
:103D4000A5FF2068816941F4006181612068816973
:103D500021F480618161206881692A6941EA022138
:103D60008161D1E72946206801F0DCFF2068C16944
:103D700041F00801C1612068C16921F00401C161FD
:103D80002068C1692A691143C161BDE729462068DD
:103D900002F014F82068C16941F40061C161206833
:103DA000C16921F48061C1612068C1692A6941EA61
:103DB0000221C161A8E72946206802F04BF820687B
:103DC000016D41F0080101652068016D21F00401D9
:103DD00001652068016D2A691143016594E7294650
:103DE000206802F06FF82068016D41F40061016500
:103DF0002068016D21F4806101652068016D2A69E8
:103E000041EA022101657FE710B50446002C03D08A
:103E100094F83D0010B107E0012010BD002084F8A7
:103E20003C00204600F017F8022084F83D00211DD8
:103E3000206801F05BFE01203D34E0726070A070EC
:103E4000E07020716071A071E07120726072A072E8
:103E50002070002010BD70477047000030B5044648
:103E600000290DD004290ED008290FD00C2910D01C
:103E7000102911D094F84300012810D0012030BD42
:103E800094F83E00F8E794F83F00F5E794F8400016
:103E9000F2E794F84100EFE794F84200ECE70220E3
:103EA000F1B3042940D0082941D00C2942D010296F
:103EB00043D084F843000122206801F073FE2349B7
:103EC0002068234A234B884209D0904207D0984269
:103ED00005D0214DA84202D0204DA84203D1456C07
:103EE00045F400454564206888420CD0B0F1804F0D
:103EF00009D01B49884206D01A49884203D0904213
:103F000001D098421CD18168174A114006291BD064
:103F1000B1F5803F18D0016841F00101016013E064
:103F2000FFE784F83E00C6E784F83F00C3E784F863
:103F30004000C0E784F84100BDE784F84200BAE7DA
:103F4000016841F001010160002030BD002C0140FA
:103F5000003401400040014000440140004801405D
:103F60000004004000080040070001000068084904
:103F7000884201D1FEF73CBB0649884207D006497A
:103F8000884204D00549884201D1FCF7F3BE70474E
:103F9000002C01400010004000140040004001408F
:103FA000704790F88410012918D0012180F88410FE
:103FB0002421C0F8881001680A680B6823F0010307
:103FC0000B6022F000510022426603681960202134
:103FD000C0F8881080F884200020704702207047C5
:103FE0007047704770B5044694F8840001281DD0CE
:103FF000012084F884002420C4F888002068056823
:10400000026822F0010202602068826822F0606289
:104010000A438260204602F035F8206805602020BF
:10402000C4F88800002084F8840070BD022070BDB0
:1040300070B5044694F8840001281DD0012084F84E
:1040400084002420C4F8880020680568026822F0F3
:10405000010202602068826822F060420A438260A6
:10406000204602F00FF8206805602020C4F8880080
:10407000002084F8840070BD022070BD7047704736
:10408000704700002DE9F04104462368D86919689B
:104090009A6840F60F0500EA0507002F0ED1850645
:1040A0000CD501F0200502F08056354306D0616F33
:1040B00000297DD02046BDE8F041084700260225B2
:1040C000002F76D0B54FDFF8D8C2174001EA0C0CAC
:1040D00057EA0C0C6DD05FEAC07C0CD05FEAC15C83
:1040E00009D54FF0010CC3F820C0D4F8903043F04C
:1040F0000103C4F89030830709D5D30707D023689C
:104100001D62D4F8903043F00403C4F890304307A4
:104110000AD5D30708D0256804232B62D4F8903041
:1041200043F00203C4F8903003070CD501F02003DC
:104130003B4308D0256808232B62D4F8903043F025
:104140000803C4F8903003050BD54B0109D5256849
:104150004FF400632B62D4F8903043F02003C4F88E
:104160009030D4F89030002B3CD0800609D501F077
:10417000200002F08051084303D0616F09B120464E
:104180008847D4F8900021688968490602D410F065
:10419000280F2DD0204602F00DF9206880684006D7
:1041A00022D52068083050E8001F21F0400101E0CE
:1041B00018E023E040E80012002AF2D1D4F8800091
:1041C00068B178498163D4F88000FDF723FF0028A7
:1041D00008D0D4F88000816BBDE8F0410847204644
:1041E000FFF74EFFBDE8F0812046FFF749FFF9E7F2
:1041F0002046FFF745FFC4F89060F3E7E76E012F14
:104200007DD1C7067BD5CF0679D5102018622068EE
:1042100080684FF02003400655D5D4F880100A6816
:10422000506880B2F0B3B4F85C7087423FD9A4F80C
:104230005E000868006880062CD4206850E8001FE3
:1042400021F4807140E80012002AF6D1206808307D
:1042500050E8001F21F0010140E80012002AF5D1CA
:104260002068083050E8001F21F0400140E80012AB
:10427000002AF5D1C4F88C30E666206850E8001FAB
:1042800021F0100140E80012002AF6D1D4F8800095
:10429000FDF788FE2567B4F85C00B4F85E10401A9C
:1042A00081B200E003E02046FFF79AFE9AE7B4F8F7
:1042B0005C10814296D11068800693D52567204610
:1042C000FFF78EFE8EE734F85C0F6188401A81B2EA
:1042D00060885C3C002885D0002983D0206850E8A5
:1042E000002F22F4907240E80027002FF6D12B4FC8
:1042F000FF432068083050E8002F3A4000E016E005
:1043000040E8002CBCF1000FF3D1C4F88C30E66615
:104310006667206850E8002F22F0100240E8002372
:10432000002BF6D125672046FFF75AFE5AE7C50253
:1043300009D5550207D54FF4801018622046BDE814
:10434000F041FFF79CBE03060CD501F0800302F498
:104350000002134306D0A16F0029A7D02046BDE874
:10436000F0410847420606D54A0604D52046BDE876
:10437000F04102F049B8020206D54A0004D52046B1
:10438000BDE8F041FFF77ABEC0018FD500298DDA74
:104390002046BDE8F041FFF724BE000001000010F8
:1043A000200100043F62000810B50446002C03D031
:1043B000D4F8880010B107E0012010BD002084F877
:1043C0008400204600F028F82420C4F888002068E3
:1043D000016821F001010160A06A10B1204601F0DE
:1043E00075FE204602F03AF8012813D02068416893
:1043F00021F4904141602068816821F02A018160A8
:104400002068016841F0010101602046BDE81040CC
:1044100001F0C0BE012010BD2DE9F04798B0044660
:10442000142113A8FCF77DF8442102A8FCF779F8C1
:1044300093492068934D002680274FF007094FF0DD
:10444000100888425BD101200290039602A8FEF773
:10445000F7F908B1FCF7DAFE286E40F480402866D0
:10446000286E00F480400190E86C40F00200E8649F
:10447000E86C00F00200019040201390122014908C
:1044800015961696CDF85C9013A97F48FDF738FF76
:104490007F4D7E48286018206860AE60EE602F6116
:1044A0006E61AE61EE612E622846FDF755FE08B1E1
:1044B000FCF7ACFEC4F88050AC627448744D143004
:1044C0006035286019206860C5F80880EE602F61AB
:1044D0006E61AE61EE612E622846FDF73DFE08B1C9
:1044E000FCF794FEE567AC62002205212520FEF76B
:1044F00007F92520FEF7F6F818B0BDE8F087654902
:104500004FF0020A88425BD1CDF808A0049602A8B9
:10451000FEF796F908B1FCF779FEA86D40F400307B
:10452000A865A86D00F400300190E86C40F001002F
:10453000E864E86C00F0010001900C201390CDF8C5
:1045400050A015961696CDF85C9013A94FF09040A8
:10455000FDF7D6FE4D484E4D2830C03528601A2054
:104560006860AE60EE602F616E61AE61EE612E62DA
:104570002846FDF7F1FD08B1FCF748FEC4F880506D
:10458000AC624248444D3C3028601B206860C5F84E
:104590000880EE602F616E61AE61EE612E6228468A
:1045A000FDF7DAFD08B1FCF731FEE567AC620022E9
:1045B00005212620FEF7A4F82620FEF793F89BE7B6
:1045C0003649884298D104200290059602A8FEF749
:1045D00037F908B1FCF71AFEA86D40F48020A865F1
:1045E000A86D00F480200190E86C40F00400E864BD
:1045F000E86C00F0040001904FF440601390CDF897
:1046000050A015961696CDF85C9013A92448FDF796
:1046100077FE1E48204D5030603528601D206860B0
:10462000C5F80880EE602F616E61AE61EE612E62AA
:104630002846FDF791FD08B1FCF7E8FDE567AC629F
:10464000154D1848C03528601C206860AE60EE60CB
:104650002F616E61AE61EE612E622846FDF77CFD32
:1046600008B1FCF7D3FDC4F88050AC6200220521EC
:104670002720FEF745F82720FEF734F83CE7000036
:104680000038014000100240000400481C000240B5
:10469000741A002000440040941B00200048004091
:1046A000000800480804024030B4D0F88C30202BB9
:1046B00002D0022030BC7047A9B1A2B10023C3666A
:1046C0000A4C0368A3420BD05B681B0208D5036841
:1046D00053E8004F44F0806443E80045002DF6D1D4
:1046E00030BC02F025B80120E4E700000080004063
:1046F00010B500681049884207D1104C0120207085
:10470000FCF7AAFC0020A07010BD0D49884207D11B
:104710000A490722BDE81040C91F0A48FFF7C4BF75
:1047200009498842F0D1054816380178491C0170C2
:10473000BDE8104002F03EB9003801403A110020B7
:10474000004400404C190020004800407047000021
:1047500070B50446D4F88800202801D0022070BD2E
:1047600031B32AB344F8501FA280E28000212164B3
:104770002120A063E06A503CE0B1164BC362E36FB6
:1047800015481863E36F15485863E06F816320682C
:1047900013462830E56F02462846216DFDF73EFDA1
:1047A00040B110208834A06020202060012070BD1E
:1047B000012070BD2168402008622068083050E860
:1047C000001F41F0800140E80012002AF5D10020CE
:1047D00070BD000069630008AB630008496200080F
:1047E00010B500680D49884216D10D48FDF778FED6
:1047F0000C488078012808D002280DD1BDE810406F
:10480000052209490648FFF74FBFBDE810400722BF
:1048100005490348FFF748BF10BD000000380140BC
:10482000B81800203A110020281D00207047FEE72C
:1048300000F04AFA012003F0EEF8F9E730B52DED6B
:10484000108B87B0FE4CD4ED188A94ED198A94ED44
:104850001A9A94ED1BCAD4ED06EAD4ED079A94EDAA
:1048600008EA94ED120A8DED050A94ED130A8DED18
:10487000040A94ED140A8DED030A9FEDF2FA69EE35
:10488000090AF7EE00CAB0EE000AB0EE6C1A4CEE60
:104890000C0A00EEC01A84ED261A28EE091AF0EE72
:1048A000410A48EE8C0A60EE800AC4ED270A68EEE1
:1048B0000C0AF0EE601A48EEC91A21EE80DA84ED97
:1048C00028DA08EECC1A21EE001A84ED291A28EE17
:1048D000081AB0EE6C2AF0EE411A4CEE0C1A01EEFA
:1048E000C02A84ED2A2A69EE0C1AB0EE612A08EE7D
:1048F000882A62EE00DAC4ED2BDA48EE890A60EE0F
:10490000800AC4ED2C0A48EEC81A61EE800AC4ED94
:104910002D0A09EE091AF0EE6CBA41EE40BAC4ED68
:104920002EBA00200090019002902EEEAE0A09EE01
:10493000A90A0EEE0E0A10EE100A04F019FE41EC60
:10494000100B02F015FE51EC100B04F0BFF800EE56
:10495000100ABD4D10EE100ADFEDBC0AA84206DABF
:10496000B0EE60AAF0EE4AAAB0EE4ABA05E08EEECA
:1049700080AAC9EE80AA8EEE00BA2BEE2D0A0AEEAE
:10498000EB0A9FEDB31ADFEDB10AB24803F06CF801
:10499000F0EE40FACDED00FA2AEE2B0A0BEE4D0AAE
:1049A0009FEDAB1ADFEDA90AAA486C3003F05CF862
:1049B000B0EE401A8DED011A8DED061A2AEE8D0A21
:1049C0000AEE6D0A9FEDA21ADFEDA00AA148D830C9
:1049D00003F04AF88DED020ADDED050A7FEEA00A2C
:1049E0009DED061ADDED041A31EE211ADDED031AF4
:1049F00030EE210AD4ED281A4FEE61EAD4ED2B1ADD
:104A00004FEE619AD4ED2E1A0FEE61EA002004EB0E
:104A10008001D1ED261A91ED292A61EEAE1A42EEFF
:104A2000291A91ED2C2A42EE0E1AC1ED3B1A401CB8
:104A30000328ECDB28EE202A09EE012A0CEE002ADE
:104A4000DFED851A42EE618A28EEA02A09EE002ADF
:104A50000CEE412A02EE218A28EE812A08EE402A35
:104A60000CEE202A02EE219A28EE800A08EE010AB6
:104A700009EE600A00EE21CA28EEA80A08EE080A2C
:104A800009EE090A0CEE0C0A10EE100A04F070FD93
:104A900041EC100B02F06CFD51EC100B04F016F819
:104AA00000EE100A10EE100AA84208DAF0EE6C9A36
:104AB0009FED668AF0EE488AB0EE489A07E0C8EEAD
:104AC000809AC8EE008A89EE008A8CEE009AB0EED9
:104AD00000EA29EE880A09EE680A20EE0E0A10EEB6
:104AE000100A04F045FD41EC100B02F025F951ECE1
:104AF000100B03F0EBFF44F8800F69EE090AF0EEAB
:104B00006CEAB0EE6E0A48EE080A00EECE0A10EE2D
:104B1000100A04F02DFD29EE890A41EC1C0B08EE69
:104B2000880A20EE0E0A10EE100A04F021FD41EC76
:104B3000100BB0EE4C1AF0EE6C1A02F019FC51ECAE
:104B4000100B03F0C3FFA06028EE080A08EEA80AC5
:104B500040EE4EEA1EEE900A04F00AFD29EEA80A85
:104B600041EC1C0B09EE080A20EE0E0A10EE100AAA
:104B700004F0FEFC41EC100BB0EE4C1AF0EE6C1A97
:104B800002F0F6FB51EC100B03F0A0FF0546206885
:104B900004F0EEFC9FED31EB53EC1E2B04F07CF89F
:104BA0009FED30CB53EC1C2B04F022FA03F08EFF68
:104BB0002060284604F0DCFC53EC1E2B04F06CF85B
:104BC00053EC1C2B04F014FA03F080FF6060A06823
:104BD00004F0CEFC9FED251B53EC112B04F05CF888
:104BE00053EC1C2B04F004FA03F070FFA06044EDBA
:104BF000089A44ED078A04ED068A04ED059A84EDCF
:104C00000FAAC4ED10AA84ED11BA84ED15DAC4ED33
:104C100016DAC4ED17BA803C002004EB800191ED58
:104C2000180A81ED1C0A401C0428F6DB0021114AF9
:104C300004EB810002EB810390ED200A1CE00000F0
:104C4000441D00200E2D0E416F12833A000000001B
:104C50006F12833AF42300206F1203396E861BF023
:104C6000F921094000000000008066406E861BF0BC
:104C7000F92109C0C81E002083ED090A80ED230A2E
:104C800090ED350A80ED380A90ED410A80ED440A36
:104C900090ED470A80ED4A0A90ED3B0A80ED3E0A0E
:104CA000491C0329C4DB07B0BDEC108B30BD10B527
:104CB00002210020FBF7E4FE0221BDE810400120A4
:104CC000FBF7DEBEFBF7BABE10B5FFF7F0FFBDE89D
:104CD0001040FFF7B3BD0000044C01F08DF92068CF
:104CE00002F0BDFE012002F096FEF6E7040000206F
:104CF000D0ED001A90ED012A72EE200A30EE812AE2
:104D000080EE821A30EE612AB0EE610A01EE020AEC
:104D1000F7EE001A31EEC11A61EE200AC0ED010A69
:104D200080ED000A7047000010B50849084802F0FD
:104D3000CDFD06490648B4316C3002F0C7FD044889
:104D4000BDE810400349D83002F0C0BDC8110020B2
:104D5000D41F00203013002000EB8100006E00F013
:104D6000F84070478068C0F3C00070478068C0F3A7
:104D7000000070478068C0F380007047C06810F47E
:104D8000406F01D0002070470120704710B501F03E
:104D9000007300EBD3504369C1F3045107248C40E6
:104DA000A3438A401343436110BD00EB8100016EB1
:104DB00021F00041114301667047000010B50E4C10
:104DC000A089012804D0022805D003280AD106E0D2
:104DD000FCF792F906E00020FCF7D6F902E001208A
:104DE000FCF7D2F900206071A081E0816081072189
:104DF000A171207410BD0000001D0020F7EE001A04
:104E000021EE000A31EEC11A01EE200A70470000BF
:104E100030B589B0202101A8FBF783FB1948184958
:104E200001604FF44031416000248460C46004613B
:104E3000446104258561047701214177016280F88E
:104E40002440C462046380F83810C46380F8404092
:104E5000FCF7CCFE08B1FCF7D9F90B48019006200D
:104E6000029003907F2004900595069401A90548BF
:104E7000FCF75CFB002801D0FCF7C8F909B030BD95
:104E800000010050C01500200020903608B52948C8
:104E9000816C41F004018164816C01F00401009196
:104EA000816C41F001018164816C01F0010100918C
:104EB000816C41F002018164806C00F0020000907E
:104EC000002205210B20FDF71BFC0B20FDF70AFC3F
:104ED000002205210C20FDF713FC0C20FDF702FC3D
:104EE000002205210D20FDF70BFC0D20FDF7FAFB3C
:104EF000002205210E20FDF703FC0E20FDF7F2FB3A
:104F0000002205210F20FDF7FBFB0F20FDF7EAFB38
:104F1000002205211020FDF7F3FB1020FDF7E2FB36
:104F2000002205213820FDF7EBFBBDE808403820C2
:104F3000FDF7D8BB0010024010B594B014221649FA
:104F40000FA8FBF7B4FA00210FA802F071FD134C73
:104F500020601422104914310AA8FBF7A8FA002196
:104F60000AA802F065FD606014220B49283105A8EB
:104F7000FBF79DFA002105A802F05AFDA06014225B
:104F800005493C316846FBF792FA0021684602F079
:104F90004FFDE06014B010BD6896000804000020CA
:104FA0002DE9F04186B0142101A8FBF7BAFA2E488A
:104FB000C16C41F02001C164C16C01F0200100917D
:104FC000C16C41F00101C164C16C01F001010091AB
:104FD000C16C41F00201C164C16C01F00201009199
:104FE000C16C41F00401C164C06C00F00400009089
:104FF0004FF4A0744FF09046002221463046FDF752
:1050000062FA1A4F4FF4C055002229463846FDF780
:105010005AFA01944FF00108CDF808800024039457
:10502000049401A93046FDF76BF9802001904FF4FC
:1050300088100290039401A93046FDF761F90195AB
:10504000CDF808800394049401A93846FDF758F977
:10505000002205211720FDF753FB1720FDF742FB27
:1050600006B0BDE8F08100000010024000040048D6
:1050700010B51248104901604FF48271416000215F
:1050800081604FF4E062C260016141614FF40072DF
:1050900082613822C2610162416281620722C2627A
:1050A00001634163FEF72CF9002803D0BDE81040EE
:1050B000FCF7ACB810BD0000003800408C16002092
:1050C00010B588B0002404940594069407940194C4
:1050D00002940394144813490160A721416084603D
:1050E00040F2E731C160046144618461FEF749FB2D
:1050F00008B1FCF78BF84FF48050049004A90A48DB
:10510000FEF732FC08B1FCF781F80194039401A981
:105110000548FEF7EDFA002801D0FCF777F808B053
:1051200010BD0000004001406C18002010B58EB08A
:1051300000240A940B940C940D94079408940994F9
:105140001C216846FBF7EDF921484FF080410160D2
:10515000A9214160846040F2E731C160046184614B
:10516000FEF70FFB08B1FCF751F84FF480500A909E
:105170000AA91748FEF7F8FB08B1FCF747F81448EE
:10518000FEF742FE08B1FCF741F80794099407A91D
:105190000F48FEF7ADFA08B1FCF738F86020009030
:1051A000019402940494042269460948FEF791FD93
:1051B00008B1FCF72BF8082269460548FEF789FD7F
:1051C00008B1FCF723F80248FEF72AFD0EB010BD27
:1051D000F016002010B58EB000240A940B940C94A5
:1051E0000D940794089409941C216846FBF799F9DB
:1051F000224821490160A9214160846044F61F6171
:10520000C16004618461FEF7BCFA08B1FBF7FEFFE0
:105210004FF480500A900AA91848FEF7A5FB08B180
:10522000FBF7F4FF1548FEF7EFFD08B1FBF7EEFFC3
:105230000794099407A91148FEF75AFA08B1FBF739
:10524000E5FF6020009001940294049400226946D6
:105250000A48FEF73EFD08B1FBF7D8FF0422694675
:105260000648FEF736FD08B1FBF7D0FF0348FEF70E
:10527000D7FC0EB010BD0000000400403C17002019
:1052800010B58EB000240A940B940C940D940794DE
:10529000089409941C216846FBF743F926482549E0
:1052A0000160A7214160846044F61F61C160046110
:1052B0008461FEF766FA08B1FBF7A8FF4FF480504F
:1052C0000A900AA91C48FEF74FFB08B1FBF79EFFA6
:1052D0001948FEF799FD08B1FBF798FF0794099468
:1052E00007A91548FEF704FA08B1FBF78FFF602005
:1052F0000090019402940494042269460E48FEF73B
:10530000E8FC08B1FBF782FF082269460A48FEF76D
:10531000E0FC08B1FBF77AFF0C2269460648FEF76D
:10532000D8FC08B1FBF772FF0348FEF779FC0EB01A
:1053300010BD000000080040881700203EB5002482
:105340000094019402940D480B490160446084600C
:1053500042F20F71C1608461FEF713FA08B1FBF7E6
:1053600055FF0094029469460448FEF7C1F90028ED
:1053700001D0FBF74BFF3EBD00100040D4170020CA
:105380003EB500240094019402940E480C4901603B
:10539000A7214160846042F20F71C1608461FEF711
:1053A000F0F908B1FBF732FF009402946946054812
:1053B000FEF79EF9002801D0FBF728FF3EBD000054
:1053C000001400402018002010B51848164901604C
:1053D0004FF46121416000218160C16001610C22B4
:1053E00042618161C161016241628162FDF7C2F87F
:1053F00008B1FBF70BFF00210C48FEF719FE08B1BE
:10540000FBF704FF00210948FEF7ECFD08B1FBF7AC
:10541000FDFE0648FEF7C5FD002803D0BDE810409C
:10542000FBF7F4BE10BD000000380140B8180020A2
:1054300010B5174815490160164941600021816087
:10544000C16001610C2242618161C16101624162FE
:105450008162FEF7A9FF08B1FBF7D8FE00210C48D6
:10546000FEF7E6FD08B1FBF7D1FE00210848FEF784
:10547000B9FD08B1FBF7CAFE0548FEF792FD00280A
:1054800003D0BDE81040FBF7C1BE10BD0044004092
:105490004C1900200094110010B5184816490160FD
:1054A0004FF4E131416000218160C16001610C2253
:1054B00042618161C161016241628162FEF774FFF4
:1054C00008B1FBF7A3FE00210C48FEF7B1FD08B1BF
:1054D000FBF79CFE00210948FEF784FD08B1FBF7AD
:1054E00095FE0648FEF75DFD002803D0BDE810409C
:1054F000FBF78CBE10BD000000480040E019002002
:10550000FEE7FEE710B504462DED028BB0EE628A91
:10551000F0EE438A0748A066204602F073FCA069BB
:10552000F0EE680AB0EE480ABDEC028BBDE8104010
:10553000FBF722BF057E00089FED070A80ED000AF9
:105540009FED060A80ED010A80ED020AB0EE080A1E
:1055500080ED0D0A70470000CF357A3B0000000057
:1055600010B51948FEF750FC1848FEF74DFC1848D6
:10557000FEF74AFC04211448FEF770FC082112488B
:10558000FEF76CFC00211148FEF768FC04210F486F
:10559000FEF764FC08210D48FEF760FC0C210B4867
:1055A000FEF75CFC00210A48FEF758FC042108487D
:1055B000FEF754FC08210648FEF750FCBDE81040F9
:1055C0000C210348FEF74ABCF01600203C170020CF
:1055D00088170020114A00231149907905280DD021
:1055E00006280AD190890A2807D80E4A401E02EBE5
:1055F000C00005C8C1E901020B707047508900283E
:10560000FBD00A28F9D8074A401E503202EBC000EE
:1056100005C8C1E901020B7070470000001D0020A1
:10562000CC000020240000201049C86800F00302CC
:10563000C868C0F30310401C032A0ED00C4AB2FB0A
:10564000F0F0CA68C2F306225043C968C1F3416151
:10565000491C4900B0FBF1F07047064AB2FBF0F07C
:10566000CA68C2F306225043EFE700000010024070
:105670000024F400001BB7000148FDF7BFBD000087
:105680008C16002010B5806A0021A0F84610C18752
:10569000FDF7B2FD10BDF8B504460E46154633467B
:1056A00000224FF4C0512046009500F027F828B1A1
:1056B000206E40F0200020660320F8BD3346002213
:1056C00080212046009500F089F828B1206E40F036
:1056D000200020660320F8BD334600224FF4C0614D
:1056E0002046009500F00AF828B1206E40F0200016
:1056F00020660320F8BD0020F8BD00002DE9FC5F06
:1057000004460C9D0E46174698464FF0000BCDF808
:1057100000B0FCF7DFFE401BA8EB0005FCF7DAFE4B
:105720008146D4F800A00AF10C0A2B480068C0EBAF
:10573000C00000EB8000000D6843019017E0B6F553
:10574000C06F05D127B99AF8000000909DF80000BD
:10575000B8F1FF3F0BD0FCF7BDFEA0EB0900A8425B
:105760000DD265B10198A0B30198401E0190206848
:1057700080683040B842E2D10020BDE8FC9F20683C
:10578000416821F0E00141606068B0F5827F0BD193
:10579000A068B0F5004F02D0B0F5806F04D120684A
:1057A000016821F040010160A06AB0F5005F09D1F5
:1057B0002068016821F4005101602068016841F40B
:1057C00000510160012084F85D0084F85CB0032082
:1057D000D3E7FFE70025CAE7200000202DE9F843C2
:1057E00004460F4691461E46089DFCF773FE401B7B
:1057F000351AFCF76FFE804627480068C0F3CB30AF
:10580000684300900DE0701C0BD0FCF763FEA0EB2A
:105810000800A84210D27DB10098B8B30098401E8D
:1058200000902068806837EA000032D000204845A8
:10583000E9D10020BDE8F8832068416821F0E0014B
:1058400041606068B0F5827F0BD1A068B0F5004F71
:1058500002D0B0F5806F04D12068016821F04001CA
:105860000160A06AB0F5005F09D12068016821F4E9
:10587000005101602068016841F40051016001207D
:105880005C346070002020700320D3E7FFE7002520
:10589000C7E70120CBE700002000002070B5044CD2
:1058A0000025A5710348FEF745F8257070BD00007E
:1058B000001D00206C180020054C207808B900F06D
:1058C0003DF80448FBF784FA642002F0A4F8F4E7FA
:1058D00049110020CC000020154A16499079002873
:1058E00010D001280DD15078C0B1012809D19FED09
:1058F000120A81ED120A81ED130A81ED140A0220C9
:105900009071704710780028FBD1B3EE0E0A81ED3C
:10591000120A81ED130A81ED140A7047BBEE0E0ADC
:1059200081ED120A81ED130A81ED140A704700001F
:1059300050110020C81E0020000000002DE9F04199
:10594000174D002632272878164C002802D0687898
:1059500088B120E068881E2803D8401C688001F0C8
:1059600053F868881E2800D927802088411E21808E
:1059700011D36E800FE0A8881E2803D8401CA88091
:10598000FBF7B2FBA8881E2800D967806088411EFB
:10599000618000D3AE80BDE8F041FFF79DBF0000FD
:1059A00050110020541500200020074A02EB80010E
:1059B00091ED030A81ED060A91ED000A81ED030ADB
:1059C000401C0328F2DB7047C81E002010B5104CA5
:1059D0006089052812D2DFE800F0110311090D00DB
:1059E00001F012F80B490120087007E0002000F0D8
:1059F00043FB03E0084807C8FBF7DCF900206061BF
:105A00006071A081E081608120740720A07110BDC9
:105A1000001D002049110020F896000810B5502004
:105A200080F31188BFF34F8FBFF36F8F02F074FFC5
:105A300018B104494FF080500860002080F31188AD
:105A400010BD000004ED00E010B594B0382106A8A8
:105A5000FAF767FD142101A8FAF763FD0020FCF7AF
:105A600081FE012006900004079002200D9003247F
:105A70000E940F945521109111901290139006A836
:105A8000FDF792F908B1FBF7C1FB0F2001900294DA
:105A90000020039004900590042101A8FDF71CF854
:105AA000002801D0FBF7B2FB14B010BD024801681A
:105AB00041F470010160704788ED00E00148FDF796
:105AC000DABF00006C1800200148FDF7D4BF0000C9
:105AD000B41C00200148FDF7CEBF0000D417002001
